:100000000C9434000C94E1010C9451000C945100B8
:100010000C9451000C9451000C9451000C9451001C
:100020000C9451000C9451000C9451000C941F023C
:100030000C9471020C9451000C9451000C945100DA
:100040000C9451000C9451000C94C6020C94510075
:100050000C9451000C9451000C9451000C945100DC
:100060000C9451000C94510011241FBECFEFD8E026
:10007000DEBFCDBF11E0A0E0B1E0EAEBFBE002C0E3
:1000800005900D92A836B107D9F721E0A8E6B1E0B6
:1000900001C01D92A239B207E1F70E94DB020C9465
:1000A000DB050C940000CF93DF93EC011A8262E031
:1000B00070E080E190E00E9491039983888380E161
:1000C0008B83DF91CF910895CF93DF93EC016B8108
:1000D00070E06C5F7F4F888199810E94CE04998384
:1000E0008883892B19F08B818C5F8B83DF91CF9173
:1000F00008951F93CF93DF93FC0182819381891729
:1001000048F4A081B181A80FB11D6C9382818F5FEB
:10011000828309C0162FEF01CF010E946400612F76
:10012000CE010E947900DF91CF911F910895CF9366
:10013000DF93EC014B8150E0440F551F60E070E00D
:10014000888199810E949D051A8280E18B83DF91CD
:10015000CF910895E0916A01F0916B0180818F7ECB
:1001600080838FE99FE00197F1F700C00000E091E4
:100170006A01F0916B018081806180838FE99FE04B
:100180000197F1F700C00000E0916A01F0916B0166
:1001900080818F7E80838FE39CE90197F1F700C017
:1001A00000000895CF93DF93C62F823011F4D0E280
:1001B00001C0D0E0E0916A01F0916B018C2F829533
:1001C0008F708D0F80830E94AA00E0916A01F091E8
:1001D0006B01CF70CD0FC0830E94AA00DF91CF9139
:1001E000089561E081E00E94D200089562E081E01C
:1001F0000E94D2000895CF9390936D0180936C017B
:1002000099278732910591F08A329105E1F0849720
:1002100039F583E290E090936F0180936E0185E25F
:1002200090E090936B0180936A011EC086E290E09B
:1002300090936F0180936E0188E290E090936B0140
:1002400080936A0111C089E290E090936F018093DE
:100250006E018BE290E090936B0180936A0104C081
:1002600081E090E00E94DB05E0916C01F0916D016E
:100270008FE380832FEF80E792E021508040904011
:10028000E1F700C00000E0916A01F0916B01C3E06A
:10029000C0830E94AA00E0916A01F0916B01C083C3
:1002A0000E94AA00E0916A01F0916B01C0830E9454
:1002B000AA00E0916A01F0916B0182E080830E94C4
:1002C000AA0068E281E00E94D2006FE081E00E9413
:1002D000D2000E94F10066E081E00E94D200CF913E
:1002E0000895813021F470E061587F4F03C070E0C1
:1002F00061547F4F81E00E94D2000895CF93DF9335
:10030000FC016081662341F0EC01219682E00E94AD
:10031000D20069916111FACFDF91CF91089552987F
:10032000E9E6F0E082E0808380818E7F808381E057
:100330008DBB08951092800085E08093810086E057
:1003400080936F0080E395E7909389008093880005
:1003500080E69AEE90938B0080938A000895FC01CA
:1003600091E491939F5F9B35E1F7089564E181E00B
:100370000E94D20060E282E00E94D20060E181E04F
:100380000E94D2000895E0910601F0910701828158
:10039000803121F461E082E00E947101E091060168
:1003A000F09107018281803258F02FEF89E698E1C1
:1003B000215080409040E1F700C000000E94F10011
:1003C00008951F920F920FB60F9211242F933F930F
:1003D0004F935F936F937F938F939F93AF93BF934D
:1003E000EF93FF93109285001092840081E0809338
:1003F0006901E0910801F0910901608182E00E94A9
:10040000D20060E181E00E94D200809108019091C9
:10041000090101969093090180930801FF91EF91E2
:10042000BF91AF919F918F917F916F915F914F910C
:100430003F912F910F900FBE0F901F9018951F9214
:100440000F920FB60F9211242F933F934F935F9308
:100450006F937F938F939F93AF93BF93EF93FF938C
:10046000809169018130D9F4109285001092840046
:10047000809108019091090101979093090180935F
:1004800008010E94C301E0910801F0910901608117
:1004900080910601909107010E94790007C060E2F7
:1004A00080910601909107010E94790080E791E018
:1004B00090930901809308010E94B601109269018E
:1004C000FF91EF91BF91AF919F918F917F916F912C
:1004D0005F914F913F912F910F900FBE0F901F9002
:1004E00018951F920F920FB60F9211242F933F93DE
:1004F0004F935F936F937F938F939F93AF93BF932C
:10050000CF93DF93EF93FF93C4E8D0E01982188272
:100510001092690180E791E09093090180930801AE
:100520000E94F1000E94F6008AE091E00E947E01A4
:10053000E0910601F0910701808191810E946D0395
:100540002FEF89E698E1215080409040E1F700C00C
:10055000000080910601909107010E9497000E947F
:10056000F10019821882FF91EF91DF91CF91BF9135
:10057000AF919F918F917F916F915F914F913F913B
:100580002F910F900FBE0F901F9018951F920F92F2
:100590000FB60F9211248F938091C6008D3429F4E9
:1005A00081E0809368011092C6008F910F900FBE7A
:1005B0000F901F90189580910801909109010E9459
:1005C000AF0184E290E00E94FB00809106019091CF
:1005D00007010E94530078940E948403809168016F
:1005E000811124C087E191E00E947E0160E082E0F9
:1005F0000E94710185E291E00E947E012FEF8DE360
:1006000099E4215080409040E1F700C000000E9432
:10061000F1002FEF8DE399E4215080409040E1F705
:1006200000C00000809168018823E1F28130D9F593
:100630000E94F10082E391E00E947E0160E082E08E
:100640000E9471018FE391E00E947E012FEF83ED04
:1006500090E3215080409040E1F700C000000E94EC
:10066000F1002FEF83ED90E3215080409040E1F7BF
:1006700000C000008EE491E00E947E0160E082E014
:100680000E9471018CE591E00E947E012FEF89E6C6
:1006900098E1215080409040E1F700C000000E94A6
:1006A0008F010E949A01FFCFE6ECF0E08AE08083A0
:1006B0002FEF86E791E0215080409040E1F700C0A5
:1006C00000008DE080832FEF86E791E0215080408D
:1006D0009040E1F700C000000895FC01908199234B
:1006E00081F03196A6ECB0E09C932FEF86E791E085
:1006F000215080409040E1F700C00000919191119D
:10070000F3CF0E945403089583E08093C50080E4F2
:100710008093C40088E98093C10086E08093C20082
:1007200008950F931F93CF93DF93869F8001879F38
:10073000100D969F100D1124C8010E94AD03EC010D
:10074000009729F0A80160E070E00E949D05CE01AD
:10075000DF91CF911F910F9108950F931F93CF9326
:10076000DF938230910510F482E090E0E0919001F7
:10077000F091910120E030E0A0E0B0E0309719F175
:10078000408151810281138148175907C8F08417AD
:10079000950769F4109731F012960C9312971396FF
:1007A0001C9327C0009390011093910122C0211542
:1007B000310519F04217530718F49A01BD01EF01F2
:1007C000DF01F801DBCF21153105F9F0281B390BCA
:1007D0002430310580F48A819B816115710521F0F7
:1007E000FB019383828304C09093910180939001D5
:1007F000FE01329644C0FE01E20FF31F81939193F4
:1008000022503109398328833AC020918E013091DA
:100810008F01232B41F42091020130910301309389
:100820008F0120938E01209100013091010121154B
:10083000310541F42DB73EB74091040150910501B7
:10084000241B350BE0918E01F0918F01E217F30725
:10085000A0F42E1B3F0B2817390778F0AC014E5F30
:100860005F4F2417350748F04E0F5F1F50938F01DD
:1008700040938E018193919302C0E0E0F0E0CF01BC
:10088000DF91CF911F910F910895CF93DF93009740
:1008900009F481C0FC01329713821282A091900169
:1008A000B0919101109781F420813181820F931FC3
:1008B00020918E0130918F012817390751F5F0935F
:1008C0008F01E0938E0167C0ED0120E030E0CE178C
:1008D000DF0740F44A815B819E0141155105F1F02B
:1008E000EA01F5CFD383C28340815181840F951FE4
:1008F000C817D90759F488819981840F951F0296EA
:10090000918380838A819B81938382832115310522
:1009100029F4F0939101E09390013DC0E901FB833C
:10092000EA8349915991C40FD51FEC17FD0761F473
:1009300080819181840F951F0296E90199838883B4
:10094000828193819B838A83E0E0F0E012968D910F
:100950009C911397009719F0FD01DC01F7CF8D9161
:100960009C9111979D012E5F3F4F820F931F209105
:100970008E0130918F012817390769F4309729F4D7
:10098000109291011092900102C013821282B093D2
:100990008F01A0938E01DF91CF910895A0E0B0E088
:1009A000E4EDF4E00C94A805EC01009721F4CB01F0
:1009B0000E94AD03B4C0FC01E60FF71F9C0122505A
:1009C0003109E217F30708F4A8C0D9010D911C9171
:1009D000119706171707B0F00530110508F49BC0F2
:1009E000C80104978617970708F495C002501109AB
:1009F000061B170B019311936D937C93CF010E94FB
:100A0000450489C05B01A01AB10A4C01800E911EF9
:100A1000A0919001B0919101612C712CE12CF12CED
:100A2000109709F446C08D919C911197A815B905AE
:100A3000B1F56C0142E0C40ED11CCA14DB0478F19C
:100A40004C018A189B08640142E0C40ED11C129626
:100A5000BC9012971396AC91B5E0CB16D10440F040
:100A6000B282A38391828082D9016D937C9309C065
:100A70000E5F1F4F800F911FF90191838083EB2D33
:100A8000FA2FE114F10431F0D7011396FC93EE93A1
:100A9000129741C0F0939101E09390013CC0681619
:100AA000790608F43C017D0112960D90BC91A02DB1
:100AB000B7CF80918E0190918F0188169906E1F44D
:100AC00066167706C8F480910001909101010097A5
:100AD00041F48DB79EB74091040150910501841BEC
:100AE000950BE817F907C8F4F0938F01E0938E0196
:100AF000F901718360830FC0CB010E94AD037C01BB
:100B0000009759F0A801BE010E949405CE010E94F1
:100B10004504C70104C0CE0102C080E090E0CDB71B
:100B2000DEB7EEE00C94C405FB01DC0102C00190CD
:100B30000D9241505040D8F70895DC0101C06D93EB
:100B400041505040E0F708952F923F924F925F92AC
:100B50006F927F928F929F92AF92BF92CF92DF92CD
:100B6000EF92FF920F931F93CF93DF93CDB7DEB732
:100B7000CA1BDB0B0FB6F894DEBF0FBECDBF0994C6
:100B80002A88398848885F846E847D848C849B841D
:100B9000AA84B984C884DF80EE80FD800C811B812B
:100BA000AA81B981CE0FD11D0FB6F894DEBF0FBE5A
:0A0BB000CDBFED010895F894FFCFCA
:100BBA000000920120008A01700120202020456E49
:100BCA007669616E646F00202020496E74656E74C8
:100BDA00616E646F0020202020636F6E656374610C
:100BEA007200202020436F6E65637461646F002079
:100BFA00436F7272656374616D656E74650020205F
:100C0A002045736372696261207375002020202079
:080C1A006D656E73616A6500EF
:00000001FF
